:100000000C9464000C948C000C948C000C948C0068
:100010000C948C000C948C000C948C000C943D057A
:100020000C948C000C948C000C948C000C948C0020
:100030000C948C000C948C000C948C000C948C0010
:100040000C94F1050C948C000C94BF050C9499054C
:100050000C948C000C948C000C948C000C948C00F0
:100060000C948C000C948C000000000024002700ED
:100070002A000000000023002600290000000008DC
:10008000000201000003040700000000000000005F
:10009000020102040810204080010204081020011F
:1000A000020408102000000000250028002B000496
:1000B000040404040404040202020202020303030F
:1000C000030303003B064F0911241FBECFEFD8E006
:1000D000DEBFCDBF11E0A0E0B1E0ECE8F5E102C089
:1000E00005900D92A235B107D9F722E0A2E5B1E063
:1000F00001C01D92AB37B207E1F710E0C3E6D0E0D4
:1001000004C02197FE010E945F09C236D107C9F7DA
:100110000E9414070C94B90A0C940000E0E7F1E087
:10012000A089B18982E08C93A485B5851C92A685AF
:10013000B78580E18C93108EA489B58986E08C9375
:10014000A289B3898C9180618C93A289B3898C91A7
:1001500088608C93A289B3898C9180688C93028883
:10016000F389E02D80818F7D808308958F929F9207
:10017000AF92BF92CF92DF92EF92FF9220915702FF
:10018000309158028217930708F052C04B01AA24FD
:10019000BB24E82DC52ED62EE72EFF24FC2D342FB0
:1001A00020915C02222361F0829E40011124E92DFE
:1001B000C29E60011124FD2D429FD00111243B2FCE
:1001C000F0906202E0905F02A0915D02B0915E0249
:1001D000FE1008C0AC01440F551F840F951F8A0FF5
:1001E0009B1F14C0880F991F880F991F8A0F9B1F90
:1001F000472F552766277727DC01AF0DB11D222336
:1002000021F0429FA0011124452F4C9320915F02C1
:10021000DC01A20FB11DEC9320916002DC01A20F62
:10022000B11DFC9320916102FC01E20FF11D3083AE
:10023000FF90EF90DF90CF90BF90AF909F908F9006
:100240000895CF92DF92EF92FF920F931F932FB7F3
:10025000F894C0906C01D0906D01E0906E01F09028
:100260006F012FBFDC01CB018C0D9D1DAE1DBF1D8D
:100270004FB7F89400916C0110916D0120916E01BF
:1002800030916F014FBF0C151D052E053F0528F05D
:1002900080179107A207B30758F71F910F91FF909E
:1002A000EF90DF90CF900895CF92DF92EF92FF9280
:1002B0000F931F93CF93DF936C017A018B01C0E002
:1002C000D0E0CE15DF0589F0D8016D918D01D60102
:1002D000ED91FC910190F081E02DC6010995892BEB
:1002E00011F47E0102C02196ECCFC701DF91CF91BE
:1002F0001F910F91FF90EF90DF90CF900895FC0138
:10030000918D828D981761F0828DDF01A80FB11D4C
:100310005D968C91928D9F5F9F73928F90E0089570
:100320008FEF9FEF0895FC01918D828D981731F02A
:10033000828DE80FF11D858D90E008958FEF9FEF7E
:100340000895FC01918D228D892F90E0805C9F4F54
:10035000821B91098F739927089580E791E00E948D
:10036000A10121E0892B09F420E0822F0895FC01EE
:10037000848DDF01A80FB11DA35ABF4F2C91848D2E
:1003800090E001968F739927848FA689B7892C9363
:10039000A089B1898C9180648C93938D848D9813FE
:1003A00006C00288F389E02D80818F7D80830895C7
:1003B000EF92FF920F931F93CF93DF93EC0181E0B5
:1003C000888F9B8D8C8D981305C0E889F989808171
:1003D00085FD24C0F62E0B8D10E00F5F1F4F0F73AD
:1003E0001127E02E8C8DE8120CC00FB607FCFACF57
:1003F000E889F989808185FFF5CFCE010E94B70198
:10040000F1CF8B8DFE01E80FF11DE35AFF4FF08213
:100410000B8FEA89FB898081806207C0EE89FF89A2
:100420006083E889F98980818064808381E090E03D
:10043000DF91CF911F910F91FF90EF900895CF938F
:10044000DF93EC01888D8823C9F0EA89FB898081DC
:1004500085FD05C0A889B9898C9186FD0FC00FB6AE
:1004600007FCF5CF808185FFF2CFA889B9898C91EF
:1004700085FFEDCFCE010E94B701E7CFDF91CF918D
:10048000089580E090E0892B29F00E94AD01811150
:100490000C9400000895833081F028F4813099F0A5
:1004A0008230A1F008958730A9F08830B9F0843007
:1004B000D1F4809180008F7D03C0809180008F7780
:1004C00080938000089584B58F7702C084B58F7DB6
:1004D00084BD08958091B0008F7703C08091B000F3
:1004E0008F7D8093B0000895CF93DF93282F30E065
:1004F000F901E458FF4F8491F901EF56FF4FD49171
:10050000F901E155FF4FC491CC2391F081110E9474
:100510004B02EC2FF0E0EE0FFF1FEE58FF4FA591BE
:10052000B491EC91ED2381E090E021F480E002C0F1
:1005300080E090E0DF91CF9108951F93CF93DF93F8
:10054000282F30E0F901E458FF4F8491F901EF566C
:10055000FF4FD491F901E155FF4FC491CC23C9F06D
:10056000162F81110E944B02EC2FF0E0EE0FFF1FBF
:10057000EB55FF4FA591B4918FB7F894111105C0B9
:100580009C91ED2FE095E92302C0EC91ED2BEC93CB
:100590008FBFDF91CF911F91089590910001981323
:1005A00024C0E0E9F0E0E4919FEF90930001E13096
:1005B000B9F098F0E230C9F4909170009D7F90936B
:1005C000700091E09093B0009091B100987F94609A
:1005D0009093B1001092B30008C010926E0005C055
:1005E00090916F009D7F90936F0060E00C949D024E
:1005F000CF93DF9390E0FC01EF56FF4F2491FC0175
:10060000E155FF4F8491882361F190E0880F991F95
:10061000FC01E859FF4FC591D491FC01EB55FF4F08
:10062000A591B491611109C09FB7F8948881209574
:1006300082238883EC912E230BC0623061F49FB734
:10064000F8943881822F809583238883EC912E2B18
:100650002C939FBF06C08FB7F894E8812E2B288378
:100660008FBFDF91CF9108953FB7F89480915301E8
:1006700090915401A0915501B091560126B5A89BC7
:1006800005C02F3F19F00196A11DB11D3FBFBA2F24
:10069000A92F982F8827820F911DA11DB11DBC0184
:1006A000CD0142E0660F771F881F991F4A95D1F749
:1006B00008958F929F92AF92BF92CF92DF92EF9266
:1006C000FF926B017C010E9434034B015C01C11459
:1006D000D104E104F104F1F00E943403DC01CB0108
:1006E00088199909AA09BB09883E9340A105B1055B
:1006F00070F321E0C21AD108E108F10888EE880EF3
:1007000083E0981EA11CB11CC114D104E104F104C2
:1007100019F7DDCFFF90EF90DF90CF90BF90AF90B3
:100720009F908F90089508958F929F92AF92BF925D
:10073000DF92EF92FF920F931F93CF93DF93CDB78A
:10074000DEB729970FB6F894DEBF0FBECDBF7C0190
:1007500000E010E088E0D82E0E151F054CF50130A2
:100760001105C1F054F40115110541F540E050E0C8
:100770006FEF70E080E090E01FC00230110589F05B
:1007800003301105D9F440E05FEF60E070E083E0F2
:1007900090E012C040E050E06FEF70E081E090E048
:1007A0000BC040E05FEF6FEF70E082E090E004C0CC
:1007B00040E050E0BA01C8010E94B60080915D029D
:1007C00090915E02892B09F49FC00E9434038090AF
:1007D000630290906402A0906502B0906602DC0112
:1007E000CB0188199909AA09BB09C297A105B105CE
:1007F00060F3F8948091590290915A029A83898308
:10080000E0915D02F0915E02DF011196808189879F
:1008100090915502E0916702F0916802809169021F
:10082000992309F42DC09081982B98879081809509
:1008300089238F838F818C83DB8258856F814985E3
:100840003B812C8189819A81508347FD252F3A95E0
:100850002083262F39F0441F00C000006083000071
:1008600000C0F2CF38E04D9160830000019761F73E
:10087000F0936802E093670249873B832C8337C07B
:100880009081982B98879081809589238F838F8181
:100890008E83DD8258856F8149853D812E818981D6
:1008A0009A81508347FD252F00C000C0208300C0DF
:1008B00000C000C000C000C060830000262F3A9531
:1008C00041F0441F000000C000C000C000C000C0D4
:1008D000E8CF38E04D9100C0608300C0019709F770
:1008E000F0936802E093670249873D832E839A83E1
:1008F000898378940E943403609363027093640246
:1009000080936502909366020F5F1F4F04301105BC
:1009100009F022CF29960FB6F894DEBF0FBECDBFE7
:10092000DF91CF911F910F91FF90EF90DF90BF90DB
:10093000AF909F908F900895FF920F931F93CF9346
:10094000DF93F82E062FC7E0D0E010E061E0802FA3
:100950000E949D028F2D0E9474020C2E01C0880FF0
:100960000A94EAF7182B60E0802F0E949D022197DD
:1009700068F7812FDF91CF911F910F91FF9008951C
:10098000EF92FF920F931F93CF93DF9380916D02AD
:100990000E947402892B31F060E070E0CB010E946C
:1009A0005903F4CFEFB6F89460916C0280916D0218
:1009B0000E949C04C82F60916C0280916D020E947D
:1009C0009C04D82F60916C0280916D020E949C045F
:1009D000F82E00E010E020916E0230E002171307BD
:1009E00068F461E080916C020E949D0260E0809159
:1009F0006C020E949D020F5F1F4FEDCFEFBE8D2F47
:100A000090E0A0E0B0E0BA2FA92F982F8827AC2B58
:100A1000AC01BD014F298C2F880F880B90E0A0E01E
:100A2000B0E0B82FAA27992788278A019B01082BB5
:100A3000192B2A2B3B2BC901B801DF91CF911F91B4
:100A40000F91FF90EF9008950C94FA090E94920A7A
:100A50006115710579F0FB0101900020E9F73197EC
:100A6000AF01461B570BDC01ED91FC910280F38135
:100A7000E02D099480E090E008951F920F920FB648
:100A80000F9211242F933F934F935F936F937F9314
:100A90008F939F93AF93BF93EF93FF9380916801E0
:100AA00090916901A0916A01B0916B01892B8A2B09
:100AB0008B2B51F180916701E0916501F091660106
:100AC0009081892780838091680190916901A0912C
:100AD0006A01B0916B01181619061A061B06C4F4B8
:100AE0008091680190916901A0916A01B0916B01B8
:100AF0000197A109B1098093680190936901A093BE
:100B00006A01B0936B0104C0809100010E94CD0284
:100B1000FF91EF91BF91AF919F918F917F916F91D5
:100B20005F914F913F912F910F900FBE0F901F90AB
:100B300018951F920F920FB60F9211242F933F9387
:100B40004F935F936F937F938F939F93AF93BF93D5
:100B5000EF93FF9380E791E00E94B701FF91EF913F
:100B6000BF91AF919F918F917F916F915F914F91C5
:100B70003F912F910F900FBE0F901F9018951F92CD
:100B80000F920FB60F9211242F938F939F93EF9391
:100B9000FF93E0918001F09181018081E0918601D5
:100BA000F091870182FD12C09081809189018F5F51
:100BB0008F7320918A01821751F0E0918901F0E052
:100BC000E059FE4F958F8093890101C08081FF918C
:100BD000EF919F918F912F910F900FBE0F901F90CB
:100BE00018951F920F920FB60F9211242F933F93D7
:100BF0008F939F93AF93BF9380916C0190916D0100
:100C0000A0916E01B0916F013091520123E0230F4A
:100C10002D3720F40196A11DB11D05C026E8230F34
:100C20000296A11DB11D2093520180936C019093F7
:100C30006D01A0936E01B0936F018091530190916B
:100C40005401A0915501B09156010196A11DB11D0D
:100C50008093530190935401A0935501B093560192
:100C6000BF91AF919F918F913F912F910F900FBEA8
:100C70000F901F901895109273011092720188EED8
:100C800093E0A0E0B0E08093740190937501A0938D
:100C90007601B09377018BE091E09093710180939E
:100CA000700185EC90E090937D0180937C0184EC51
:100CB00090E090937F0180937E0180EC90E0909390
:100CC00081018093800181EC90E090938301809377
:100CD000820182EC90E0909385018093840186EC00
:100CE00090E0909387018093860110928901109281
:100CF0008A0110928B0110928C01109213021092B3
:100D000014021092150210921602109217021092FD
:100D100018021092190210921A0210921B021092DD
:100D20001C0210921D0210921E0210921F021092BD
:100D3000200210922102109222028BE191E0909306
:100D40006B0280936A0210926F02109270021092EE
:100D500071021092720280E090E0A0E8BFE38093FD
:100D6000730290937402A0937502B093760210926E
:100D7000560210925C02109263021092640210926A
:100D800065021092660281E08093620280935F02A6
:100D90001092600292E090936102809355028CE081
:100DA00090E090935A02809359020E9465099093B3
:100DB0005E0280935D02009761F02CE0FC011192CD
:100DC0002A95E9F784E090E09093580280935702C7
:100DD00008C010925A0210925902109258021092B2
:100DE000570286E080935B0280915602882341F08F
:100DF00061E086E00E94F80260E086E00E949D02C9
:100E0000E5EBF0E0E491F0E0EE0FFF1FEB55FF4F54
:100E1000859194919093680280936702E7E9F0E0EE
:100E2000E491E09369020895CF93DF93CDB7DEB7E5
:100E3000A1970FB6F894DEBF0FBECDBF789484B5EE
:100E4000826084BD84B5816084BD85B5826085BDC6
:100E500085B5816085BD80916E00816080936E0054
:100E60001092810080918100826080938100809146
:100E700081008160809381008091800081608093F7
:100E800080008091B10084608093B1008091B000B7
:100E900081608093B00080917A00846080937A00B2
:100EA00080917A00826080937A0080917A008160DC
:100EB00080937A0080917A00806880937A00109203
:100EC000C1001092510210925202109253021092DD
:100ED000540210920F0210921002109211021092FE
:100EE000120268EB7BE080E090E00E94210180E745
:100EF00091E09093500280934F020E948E002FB792
:100F0000F89480916C0190916D01A0916E01B09167
:100F10006F012FBF80930F0290931002A0931102D4
:100F2000B09312026FE171E080914F0290915002F4
:100F30000E9428056AE070E080E090E00E942101B4
:100F400011E0109323020E948E0084E080936C02D3
:100F500083E080936D0261E084E00E94F80260E02B
:100F600080916D020E94F80210936E0260E0809101
:100F70006C020E949D020E94C00461E085E00E9414
:100F8000F80280915B0287FD08C061E00E94F802D0
:100F900060E080915B020E949D0281E08093560296
:100FA00088248A94982C540144EB242E40E0342E5B
:100FB0005AE0452E512C612C712C80916D020E94BB
:100FC0007402892B09F040C10E94C0046B017C01AE
:100FD00061E371E080E791E00E942805F7FE26C0FA
:100FE000E0917001F09171010190F081E02D6DE2CE
:100FF00080E791E0099522273327A9012C193D09A3
:101000004E095F0919A28E010F5D1F4FCA01B90178
:10101000A30192010E94970A605DF80162938F011B
:10102000211531054105510589F715C0A701960124
:1010300019A28E010F5D1F4FCA01B901A3019201D0
:101040000E94970A605DF80162938F0121153105B6
:101050004105510589F7B80180E791E00E94280514
:101060006EE271E080E791E00E942805F9EECF166C
:10107000F0E8DF06E104F1041CF080E090E009C034
:1010800081E1C81687E2D806E104F10444F081E06A
:1010900090E00E94940385E00E94CD02CEC01C1413
:1010A0001D041E041F041CF482E090E0F2CF91EEB8
:1010B000C91691EBD9069FEFE906F9061CF083E00B
:1010C00090E0E7CF84E090E00E94940380910001DB
:1010D000853021F4E0E9F0E0149175C08F3F09F00C
:1010E000ACC085E080930001E0E9F0E014911F3F7F
:1010F00009F4A3C0113009F1123009F441C01111F3
:1011000062C014BC15BC84B5826084BD85B58160A5
:1011100085BDF1018491E82FF0E0EE0FFF1FEB5544
:10112000FF4F8591949190935C0180935B01E6E978
:10113000F0E0849180935A0148C010928000109290
:10114000810080918100886080938100809181007E
:10115000816080938100F1018491E82FF0E0EE0F2F
:10116000FF1FEB55FF4F8591949190935901809308
:101170005801E6E9F0E084918093570111E025C021
:101180001092B0001092B1008091B0008260809304
:10119000B0008091B10081608093B100F101849131
:1011A000E82FF0E0EE0FFF1FEB55FF4F8591949174
:1011B0009093660180936501E6E9F0E08491809365
:1011C000670112E002C017FD38C061E085E00E94AF
:1011D000F802112309F44FC0123009F444C0113051
:1011E000D1F480918100887F8160809381008FE3BA
:1011F0009FE1909389008093880080925D01909296
:101200005E01A0925F01B092600180916F008260E8
:1012100080936F0012C0123081F48FE38093B3008B
:101220008092680190926901A0926A01B0926B016C
:101230008091700082608093700064E670E080E0CE
:1012400090E00E9459030CC061E471E080E791E0F6
:101250000E9428056EE271E080E791E00E94280577
:101260000E944102AACE8091B100887F8360809362
:10127000B10089EFD3CF85B5887F836085BD9CE7BA
:1012800097BD8092610190926201A0926301B09239
:10129000640180916E00826080936E00CECF809159
:1012A0005D0290915E02009711F00E94FA09809110
:1012B0005B0287FD03C060E00C94F8020895EE0F16
:1012C000FF1F0590F491E02D0994CF93DF938230B6
:1012D000910510F482E090E0E0917902F0917A02B9
:1012E00020E030E0C0E0D0E0309711F14081518142
:1012F00048175907C0F04817590761F48281938154
:10130000209719F09B838A832BC090937A02809355
:10131000790226C02115310519F04217530718F438
:101320009A01BE01DF01EF010280F381E02DDCCFE5
:101330002115310509F1281B390B2430310590F4B2
:1013400012968D919C9113976115710521F0FB0107
:101350009383828304C090937A0280937902FD0183
:10136000329644C0FD01E20FF31F81939193225006
:1013700031092D933C933AC0209177023091780245
:10138000232B41F420910301309104013093780222
:10139000209377022091010130910201211531053E
:1013A00041F42DB73EB74091050150910601241B31
:1013B000350BE0917702F0917802E217F307A0F481
:1013C0002E1B3F0B2817390778F0AC014E5F5F4F9B
:1013D0002417350748F04E0F5F1F50937802409353
:1013E00077028193919302C0E0E0F0E0CF01DF91BA
:1013F000CF9108950F931F93CF93DF93009709F434
:101400008CC0FC01329713821282009179021091F4
:101410007A020115110581F420813181820F931F19
:1014200020917702309178022817390779F5F093E7
:101430007802E093770271C0D80140E050E0AE1727
:10144000BF0750F412962D913C911397AD012115D1
:10145000310509F1D901F3CF9D01DA0133832283EC
:1014600060817181860F971F8217930769F4EC01E1
:1014700028813981260F371F2E5F3F4F318320830C
:101480008A819B8193838283452B29F4F0937A028E
:10149000E093790242C01396FC93EE931297ED010C
:1014A000499159919E01240F351FE217F30771F4FA
:1014B00080819181840F951F029611969C938E9343
:1014C0008281938113969C938E931297E0E0F0E0D3
:1014D000D80112968D919C911397009719F0F801FD
:1014E0008C01F6CF8D919C9198012E5F3F4F820F1A
:1014F000931F20917702309178022817390769F4F9
:10150000309729F410927A021092790202C0138265
:1015100012821093780200937702DF91CF911F918E
:101520000F91089581E090E0F8940C94B90AA1E23B
:101530001A2EAA1BBB1BFD010DC0AA1FBB1FEE1F4D
:10154000FF1FA217B307E407F50720F0A21BB30B98
:10155000E40BF50B661F771F881F991F1A9469F714
:1015600060957095809590959B01AC01BD01CF0170
:10157000089510E0C3E6D0E004C0FE010E945F09B8
:0C1580002196C436D107C9F7F894FFCFBC
:10158C00FF00007B02800000000000D8015401A184
:10159C00017F0193011F02000000009303240556F4
:1015AC004D4450565F317C315F564D4450560D0AB8
:1015BC000048583731312072656164696E673A2092
:1015CC00004858373131206E6F7420666F756E6429
:0215DC002E00DF
:107E0000112484B714BE81FFF0D085E080938100F7
:107E100082E08093C00088E18093C10086E0809377
:107E2000C20080E18093C4008EE0C9D0259A86E02C
:107E300020E33CEF91E0309385002093840096BBD3
:107E4000B09BFECF1D9AA8958150A9F7CC24DD24C4
:107E500088248394B5E0AB2EA1E19A2EF3E0BF2EE7
:107E6000A2D0813461F49FD0082FAFD0023811F036
:107E7000013811F484E001C083E08DD089C08234E0
:107E800011F484E103C0853419F485E0A6D080C0E4
:107E9000853579F488D0E82EFF2485D0082F10E0AE
:107EA000102F00270E291F29000F111F8ED06801E7
:107EB0006FC0863521F484E090D080E0DECF843638
:107EC00009F040C070D06FD0082F6DD080E0C81688
:107ED00080E7D80618F4F601B7BEE895C0E0D1E017
:107EE00062D089930C17E1F7F0E0CF16F0E7DF06D8
:107EF00018F0F601B7BEE89568D007B600FCFDCFD4
:107F0000A601A0E0B1E02C9130E011968C91119780
:107F100090E0982F8827822B932B1296FA010C0160
:107F200087BEE89511244E5F5F4FF1E0A038BF0790
:107F300051F7F601A7BEE89507B600FCFDCF97BE46
:107F4000E89526C08437B1F42ED02DD0F82E2BD052
:107F50003CD0F601EF2C8F010F5F1F4F84911BD097
:107F6000EA94F801C1F70894C11CD11CFA94CF0C13
:107F7000D11C0EC0853739F428D08EE10CD085E9AC
:107F80000AD08FE07ACF813511F488E018D01DD067
:107F900080E101D065CF982F8091C00085FFFCCF94
:107FA0009093C60008958091C00087FFFCCF809118
:107FB000C00084FD01C0A8958091C6000895E0E648
:107FC000F0E098E1908380830895EDDF803219F02E
:107FD00088E0F5DFFFCF84E1DECF1F93182FE3DFCA
:107FE0001150E9F7F2DF1F91089580E0E8DFEE27F6
:047FF000FF270994CA
:027FFE00040479
:0400000300007E007B
:00000001FF